{"abi":[{"type":"constructor","inputs":[{"name":"_stakingToken","type":"address","internalType":"contract ERC20"},{"name":"_rewardToken","type":"address","internalType":"contract ERC20"}],"stateMutability":"nonpayable"},{"type":"function","name":"balanceOf","inputs":[{"name":"","type":"address","internalType":"address"}],"outputs":[{"name":"","type":"uint256","internalType":"uint256"}],"stateMutability":"view"},{"type":"function","name":"duration","inputs":[],"outputs":[{"name":"","type":"uint256","internalType":"uint256"}],"stateMutability":"view"},{"type":"function","name":"earned","inputs":[{"name":"_account","type":"address","internalType":"address"}],"outputs":[{"name":"","type":"uint256","internalType":"uint256"}],"stateMutability":"view"},{"type":"function","name":"finishAt","inputs":[],"outputs":[{"name":"","type":"uint256","internalType":"uint256"}],"stateMutability":"view"},{"type":"function","name":"getReward","inputs":[],"outputs":[],"stateMutability":"nonpayable"},{"type":"function","name":"lastTimeRewardApplicable","inputs":[],"outputs":[{"name":"","type":"uint256","internalType":"uint256"}],"stateMutability":"view"},{"type":"function","name":"notifyRewardAmount","inputs":[{"name":"_amount","type":"uint256","internalType":"uint256"}],"outputs":[],"stateMutability":"nonpayable"},{"type":"function","name":"owner","inputs":[],"outputs":[{"name":"","type":"address","internalType":"address"}],"stateMutability":"view"},{"type":"function","name":"rewardPerToken","inputs":[],"outputs":[{"name":"","type":"uint256","internalType":"uint256"}],"stateMutability":"view"},{"type":"function","name":"rewardPerTokenStored","inputs":[],"outputs":[{"name":"","type":"uint256","internalType":"uint256"}],"stateMutability":"view"},{"type":"function","name":"rewardRate","inputs":[],"outputs":[{"name":"","type":"uint256","internalType":"uint256"}],"stateMutability":"view"},{"type":"function","name":"rewards","inputs":[{"name":"","type":"address","internalType":"address"}],"outputs":[{"name":"","type":"uint256","internalType":"uint256"}],"stateMutability":"view"},{"type":"function","name":"rewardsToken","inputs":[],"outputs":[{"name":"","type":"address","internalType":"contract ERC20"}],"stateMutability":"view"},{"type":"function","name":"setRewardsDuration","inputs":[{"name":"_duration","type":"uint256","internalType":"uint256"}],"outputs":[],"stateMutability":"nonpayable"},{"type":"function","name":"stake","inputs":[{"name":"_amount","type":"uint256","internalType":"uint256"}],"outputs":[],"stateMutability":"nonpayable"},{"type":"function","name":"stakingToken","inputs":[],"outputs":[{"name":"","type":"address","internalType":"contract ERC20"}],"stateMutability":"view"},{"type":"function","name":"totalSupply","inputs":[],"outputs":[{"name":"","type":"uint256","internalType":"uint256"}],"stateMutability":"view"},{"type":"function","name":"transferOwnership","inputs":[{"name":"newOwner","type":"address","internalType":"address"}],"outputs":[],"stateMutability":"nonpayable"},{"type":"function","name":"updatedAt","inputs":[],"outputs":[{"name":"","type":"uint256","internalType":"uint256"}],"stateMutability":"view"},{"type":"function","name":"userRewardPerTokenPaid","inputs":[{"name":"","type":"address","internalType":"address"}],"outputs":[{"name":"","type":"uint256","internalType":"uint256"}],"stateMutability":"view"},{"type":"function","name":"withdraw","inputs":[{"name":"_amount","type":"uint256","internalType":"uint256"}],"outputs":[],"stateMutability":"nonpayable"},{"type":"event","name":"OwnershipTransferred","inputs":[{"name":"user","type":"address","indexed":true,"internalType":"address"},{"name":"newOwner","type":"address","indexed":true,"internalType":"address"}],"anonymous":false},{"type":"event","name":"RewardAdded","inputs":[{"name":"reward","type":"uint256","indexed":false,"internalType":"uint256"}],"anonymous":false},{"type":"event","name":"RewardPaid","inputs":[{"name":"user","type":"address","indexed":true,"internalType":"address"},{"name":"reward","type":"uint256","indexed":false,"internalType":"uint256"}],"anonymous":false},{"type":"event","name":"RewardsDurationUpdated","inputs":[{"name":"newDuration","type":"uint256","indexed":false,"internalType":"uint256"}],"anonymous":false},{"type":"event","name":"Staked","inputs":[{"name":"user","type":"address","indexed":true,"internalType":"address"},{"name":"amount","type":"uint256","indexed":false,"internalType":"uint256"}],"anonymous":false},{"type":"event","name":"Withdrawn","inputs":[{"name":"user","type":"address","indexed":true,"internalType":"address"},{"name":"amount","type":"uint256","indexed":false,"internalType":"uint256"}],"anonymous":false}],"bytecode":{"object":"0x60c0346100cf57601f610d0838819003918201601f19168301916001600160401b038311848410176100d45780849260409485528339810103126100cf57610052602061004b836100ea565b92016100ea565b600080546001600160a01b03191633908117825560405193917f8be0079c531659141344cd1fd0a4f28419497f9722a3daafe3b4186f6b6457e08180a360805260a052610c0990816100ff823960805181818161030d015281816104c8015261089b015260a0518181816101af015281816105a001526106ac0152f35b600080fd5b634e487b7160e01b600052604160045260246000fd5b51906001600160a01b03821682036100cf5756fe60406080815260048036101561001457600080fd5b600091823560e01c9081628cc2621461098b5781630700037d146109505781630fb5a6b41461093157816318160ddd146109125781632e1a7d4d146108305781633c6b16ab1461061a5781633d18b9121461055157816367d3b4881461053257816370a08231146104f757816372f702f3146104b35781637519ab50146104945781637b0a47ee1461047557816380faa57d146104585781638b8763471461041d5781638da5cb5b146103f5578163a694fc3a146102aa578163cc1a378f14610202578163cd3daf9d146101de578163d1af0c7d1461019a578163df136d651461017b575063f2fde38b1461010857600080fd5b3461017757602036600319011261017757356001600160a01b038181169182900361017357819061013e84549182163314610abb565b6001600160a01b031916178255337f8be0079c531659141344cd1fd0a4f28419497f9722a3daafe3b4186f6b6457e08380a380f35b8280fd5b5080fd5b8390346101775781600319360112610177576020906005549051908152f35b839034610177578160031936011261017757517f00000000000000000000000000000000000000000000000000000000000000006001600160a01b03168152602090f35b8390346101775781600319360112610177576020906101fb610b08565b9051908152f35b9050346101735760203660031901126101735781359161022c60018060a01b038554163314610abb565b6002544211156102685750816020917ffb46ca5a5e06d4540d6387b930a7c978bce0db5f449ec6b3f5d07c6e1d44f2d39360015551908152a180f35b6020606492519162461bcd60e51b8352820152601c60248201527f726577617264206475726174696f6e206e6f742066696e6973686564000000006044820152fd5b90503461017357602090816003193601126103f1578235926102ca610b08565b6005556102d5610af6565b600355336103cd575b6102e9841515610a82565b8285606484516323b872dd60e01b81523385820152306024820152876044820152827f00000000000000000000000000000000000000000000000000000000000000005af13d15601f3d116001885114161716156103955750907f9e71bc8eea02a63969f509818f2dafb9254532904319f9dbda79b67bd34a5f3d913385526009825280852061037a858254610a16565b905561038884600854610a16565b600855519283523392a280f35b82606492519162461bcd60e51b835282015260146024820152731514905394d1915497d19493d357d1905253115160621b6044820152fd5b6103d633610a23565b338652600784528286205560055460068452828620556102de565b8380fd5b839034610177578160031936011261017757905490516001600160a01b039091168152602090f35b9190503461017357602036600319011261017357356001600160a01b0381169081900361017357828291602094526006845220549051908152f35b8390346101775781600319360112610177576020906101fb610af6565b9190503461017357826003193601126101735760209250549051908152f35b8390346101775781600319360112610177576020906003549051908152f35b839034610177578160031936011261017757517f00000000000000000000000000000000000000000000000000000000000000006001600160a01b03168152602090f35b9190503461017357602036600319011261017357356001600160a01b0381169081900361017357828291602094526009845220549051908152f35b8390346101775781600319360112610177576020906002549051908152f35b83903461017757816003193601126101775761056b610b08565b600555610576610af6565b600355336105f4575b3382526007602052808220908282549283610598575080f35b556105c482337f0000000000000000000000000000000000000000000000000000000000000000610b62565b519081527fe2403640ba68fed3a2f88b7557551d1993f84b99bb10ff833f0cf8db0c5e048660203392a281808280f35b6105fd33610a23565b33835260076020528183205560055460066020528183205561057f565b83833461017757602090816003193601126101735782548135916001600160a01b039161064a9083163314610abb565b610652610b08565b60055561065d610af6565b6003556002544281116107fe5750610677600154846109f6565b81555b80549182156107c9576024908561069460015480966109e3565b918951938480926370a0823160e01b825230888301527f0000000000000000000000000000000000000000000000000000000000000000165afa9182156107bf578792610762575b501161071f5750936107107fde88a922e0d3b88b24e9623efeb464919c6bf9f66857a65e2bfcf2ce87a9433d949542610a16565b6002554260035551908152a180f35b855162461bcd60e51b8152908101849052601760248201527f72657761726420616d6f756e74203e2062616c616e63650000000000000000006044820152606490fd5b909150853d87116107b8575b601f8101601f1916820167ffffffffffffffff8111838210176107a557879183918b52810103126107a1575190886106dc565b8680fd5b634e487b7160e01b895260418552602489fd5b503d61076e565b88513d89823e3d90fd5b865162461bcd60e51b8152808301869052600f60248201526e07265776172642072617465203d203608c1b6044820152606490fd5b61082061081a6108126108299342906109c0565b8454906109e3565b85610a16565b600154906109f6565b815561067a565b9190503461017357602036600319011261017357359061084e610b08565b600555610859610af6565b600355336108ec575b61086d821515610a82565b33835260096020528083206108838382546109c0565b9055610891826008546109c0565b6008556108bf82337f0000000000000000000000000000000000000000000000000000000000000000610b62565b519081527f7084f5476618d8e60b11ef0d7d3f06914655adb8793e28ff7f018d4c76d505d560203392a280f35b6108f533610a23565b338452600760205281842055600554600660205281842055610862565b8390346101775781600319360112610177576020906008549051908152f35b8390346101775781600319360112610177576020906001549051908152f35b9190503461017357602036600319011261017357356001600160a01b0381169081900361017357828291602094526007845220549051908152f35b919050346101735760203660031901126101735735916001600160a01b03831683036109bd57506101fb602092610a23565b80fd5b919082039182116109cd57565b634e487b7160e01b600052601160045260246000fd5b818102929181159184041417156109cd57565b8115610a00570490565b634e487b7160e01b600052601260045260246000fd5b919082018092116109cd57565b610a7f9060018060a01b0316604060008281526009602052670de0b6b3a7640000610a6e83832054610a68610a56610b08565b878652600660205286862054906109c0565b906109e3565b049281526007602052205490610a16565b90565b15610a8957565b60405162461bcd60e51b815260206004820152600a6024820152690616d6f756e74203d20360b41b6044820152606490fd5b15610ac257565b60405162461bcd60e51b815260206004820152600c60248201526b15539055551213d49256915160a21b6044820152606490fd5b600254428111610b035790565b504290565b6008548015610b5b57600554610b2e600454610a68610b25610af6565b600354906109c0565b670de0b6b3a7640000908181029181830414901517156109cd57610a7f92610b55916109f6565b90610a16565b5060055490565b600091826044926020956040519363a9059cbb60e01b8552600485015260248401525af13d15601f3d1160016000511416171615610b9c57565b60405162461bcd60e51b815260206004820152600f60248201526e1514905394d1915497d19052531151608a1b6044820152606490fdfea2646970667358221220f16fbadd41aed72b393454370f73b90bb5144fd8e03c989024176d40cd4002ea64736f6c63430008190033","linkReferences":{}},"methodIdentifiers":{"balanceOf(address)":"70a08231","duration()":"0fb5a6b4","earned(address)":"008cc262","finishAt()":"67d3b488","getReward()":"3d18b912","lastTimeRewardApplicable()":"80faa57d","notifyRewardAmount(uint256)":"3c6b16ab","owner()":"8da5cb5b","rewardPerToken()":"cd3daf9d","rewardPerTokenStored()":"df136d65","rewardRate()":"7b0a47ee","rewards(address)":"0700037d","rewardsToken()":"d1af0c7d","setRewardsDuration(uint256)":"cc1a378f","stake(uint256)":"a694fc3a","stakingToken()":"72f702f3","totalSupply()":"18160ddd","transferOwnership(address)":"f2fde38b","updatedAt()":"7519ab50","userRewardPerTokenPaid(address)":"8b876347","withdraw(uint256)":"2e1a7d4d"},"id":113}