{"abi":[{"type":"constructor","inputs":[],"stateMutability":"nonpayable"},{"type":"function","name":"LIQUIDATION_REWARD","inputs":[],"outputs":[{"name":"","type":"uint256","internalType":"uint256"}],"stateMutability":"view"},{"type":"function","name":"MAX_VAULTS","inputs":[],"outputs":[{"name":"","type":"uint256","internalType":"uint256"}],"stateMutability":"view"},{"type":"function","name":"MIN_COLLAT_RATIO","inputs":[],"outputs":[{"name":"","type":"uint256","internalType":"uint256"}],"stateMutability":"view"},{"type":"function","name":"UPGRADE_INTERFACE_VERSION","inputs":[],"outputs":[{"name":"","type":"string","internalType":"string"}],"stateMutability":"view"},{"type":"function","name":"add","inputs":[{"name":"id","type":"uint256","internalType":"uint256"},{"name":"vault","type":"address","internalType":"address"}],"outputs":[],"stateMutability":"nonpayable"},{"type":"function","name":"burnDyad","inputs":[{"name":"id","type":"uint256","internalType":"uint256"},{"name":"amount","type":"uint256","internalType":"uint256"}],"outputs":[],"stateMutability":"nonpayable"},{"type":"function","name":"collatRatio","inputs":[{"name":"id","type":"uint256","internalType":"uint256"}],"outputs":[{"name":"","type":"uint256","internalType":"uint256"}],"stateMutability":"view"},{"type":"function","name":"dNft","inputs":[],"outputs":[{"name":"","type":"address","internalType":"contract DNft"}],"stateMutability":"view"},{"type":"function","name":"deposit","inputs":[{"name":"id","type":"uint256","internalType":"uint256"},{"name":"vault","type":"address","internalType":"address"},{"name":"amount","type":"uint256","internalType":"uint256"}],"outputs":[],"stateMutability":"nonpayable"},{"type":"function","name":"dyad","inputs":[],"outputs":[{"name":"","type":"address","internalType":"contract Dyad"}],"stateMutability":"view"},{"type":"function","name":"getTotalValue","inputs":[{"name":"id","type":"uint256","internalType":"uint256"}],"outputs":[{"name":"","type":"uint256","internalType":"uint256"}],"stateMutability":"view"},{"type":"function","name":"getVaults","inputs":[{"name":"id","type":"uint256","internalType":"uint256"}],"outputs":[{"name":"","type":"address[]","internalType":"address[]"}],"stateMutability":"view"},{"type":"function","name":"getVaultsValues","inputs":[{"name":"id","type":"uint256","internalType":"uint256"}],"outputs":[{"name":"exoValue","type":"uint256","internalType":"uint256"},{"name":"keroValue","type":"uint256","internalType":"uint256"}],"stateMutability":"view"},{"type":"function","name":"hasVault","inputs":[{"name":"id","type":"uint256","internalType":"uint256"},{"name":"vault","type":"address","internalType":"address"}],"outputs":[{"name":"","type":"bool","internalType":"bool"}],"stateMutability":"view"},{"type":"function","name":"initialize","inputs":[{"name":"_dNft","type":"address","internalType":"contract DNft"},{"name":"_dyad","type":"address","internalType":"contract Dyad"},{"name":"_vaultLicenser","type":"address","internalType":"contract VaultLicenser"}],"outputs":[],"stateMutability":"nonpayable"},{"type":"function","name":"lastDeposit","inputs":[{"name":"","type":"uint256","internalType":"uint256"}],"outputs":[{"name":"","type":"uint256","internalType":"uint256"}],"stateMutability":"view"},{"type":"function","name":"liquidate","inputs":[{"name":"id","type":"uint256","internalType":"uint256"},{"name":"to","type":"uint256","internalType":"uint256"},{"name":"amount","type":"uint256","internalType":"uint256"}],"outputs":[],"stateMutability":"nonpayable"},{"type":"function","name":"mintDyad","inputs":[{"name":"id","type":"uint256","internalType":"uint256"},{"name":"amount","type":"uint256","internalType":"uint256"},{"name":"to","type":"address","internalType":"address"}],"outputs":[],"stateMutability":"nonpayable"},{"type":"function","name":"owner","inputs":[],"outputs":[{"name":"","type":"address","internalType":"address"}],"stateMutability":"view"},{"type":"function","name":"proxiableUUID","inputs":[],"outputs":[{"name":"","type":"bytes32","internalType":"bytes32"}],"stateMutability":"view"},{"type":"function","name":"redeemDyad","inputs":[{"name":"id","type":"uint256","internalType":"uint256"},{"name":"vault","type":"address","internalType":"address"},{"name":"amount","type":"uint256","internalType":"uint256"},{"name":"to","type":"address","internalType":"address"}],"outputs":[{"name":"","type":"uint256","internalType":"uint256"}],"stateMutability":"nonpayable"},{"type":"function","name":"remove","inputs":[{"name":"id","type":"uint256","internalType":"uint256"},{"name":"vault","type":"address","internalType":"address"}],"outputs":[],"stateMutability":"nonpayable"},{"type":"function","name":"renounceOwnership","inputs":[],"outputs":[],"stateMutability":"nonpayable"},{"type":"function","name":"transferOwnership","inputs":[{"name":"newOwner","type":"address","internalType":"address"}],"outputs":[],"stateMutability":"nonpayable"},{"type":"function","name":"upgradeToAndCall","inputs":[{"name":"newImplementation","type":"address","internalType":"address"},{"name":"data","type":"bytes","internalType":"bytes"}],"outputs":[],"stateMutability":"payable"},{"type":"function","name":"vaultLicenser","inputs":[],"outputs":[{"name":"","type":"address","internalType":"contract VaultLicenser"}],"stateMutability":"view"},{"type":"function","name":"withdraw","inputs":[{"name":"id","type":"uint256","internalType":"uint256"},{"name":"vault","type":"address","internalType":"address"},{"name":"amount","type":"uint256","internalType":"uint256"},{"name":"to","type":"address","internalType":"address"}],"outputs":[],"stateMutability":"nonpayable"},{"type":"event","name":"Added","inputs":[{"name":"id","type":"uint256","indexed":true,"internalType":"uint256"},{"name":"vault","type":"address","indexed":true,"internalType":"address"}],"anonymous":false},{"type":"event","name":"BurnDyad","inputs":[{"name":"id","type":"uint256","indexed":true,"internalType":"uint256"},{"name":"amount","type":"uint256","indexed":false,"internalType":"uint256"},{"name":"from","type":"address","indexed":true,"internalType":"address"}],"anonymous":false},{"type":"event","name":"Initialized","inputs":[{"name":"version","type":"uint64","indexed":false,"internalType":"uint64"}],"anonymous":false},{"type":"event","name":"Liquidate","inputs":[{"name":"id","type":"uint256","indexed":true,"internalType":"uint256"},{"name":"from","type":"address","indexed":true,"internalType":"address"},{"name":"to","type":"uint256","indexed":true,"internalType":"uint256"}],"anonymous":false},{"type":"event","name":"MintDyad","inputs":[{"name":"id","type":"uint256","indexed":true,"internalType":"uint256"},{"name":"amount","type":"uint256","indexed":false,"internalType":"uint256"},{"name":"to","type":"address","indexed":true,"internalType":"address"}],"anonymous":false},{"type":"event","name":"OwnershipTransferred","inputs":[{"name":"previousOwner","type":"address","indexed":true,"internalType":"address"},{"name":"newOwner","type":"address","indexed":true,"internalType":"address"}],"anonymous":false},{"type":"event","name":"RedeemDyad","inputs":[{"name":"id","type":"uint256","indexed":true,"internalType":"uint256"},{"name":"vault","type":"address","indexed":true,"internalType":"address"},{"name":"amount","type":"uint256","indexed":false,"internalType":"uint256"},{"name":"to","type":"address","indexed":true,"internalType":"address"}],"anonymous":false},{"type":"event","name":"Removed","inputs":[{"name":"id","type":"uint256","indexed":true,"internalType":"uint256"},{"name":"vault","type":"address","indexed":true,"internalType":"address"}],"anonymous":false},{"type":"event","name":"Upgraded","inputs":[{"name":"implementation","type":"address","indexed":true,"internalType":"address"}],"anonymous":false},{"type":"error","name":"AddressEmptyCode","inputs":[{"name":"target","type":"address","internalType":"address"}]},{"type":"error","name":"CanNotWithdrawInSameBlock","inputs":[]},{"type":"error","name":"CrTooHigh","inputs":[]},{"type":"error","name":"CrTooLow","inputs":[]},{"type":"error","name":"ERC1967InvalidImplementation","inputs":[{"name":"implementation","type":"address","internalType":"address"}]},{"type":"error","name":"ERC1967NonPayable","inputs":[]},{"type":"error","name":"FailedInnerCall","inputs":[]},{"type":"error","name":"InvalidDNft","inputs":[]},{"type":"error","name":"InvalidInitialization","inputs":[]},{"type":"error","name":"NotDNftVault","inputs":[]},{"type":"error","name":"NotEnoughExoCollat","inputs":[]},{"type":"error","name":"NotInitializing","inputs":[]},{"type":"error","name":"NotLicensed","inputs":[]},{"type":"error","name":"NotOwner","inputs":[]},{"type":"error","name":"OwnableInvalidOwner","inputs":[{"name":"owner","type":"address","internalType":"address"}]},{"type":"error","name":"OwnableUnauthorizedAccount","inputs":[{"name":"account","type":"address","internalType":"address"}]},{"type":"error","name":"TooManyVaults","inputs":[]},{"type":"error","name":"UUPSUnauthorizedCallContext","inputs":[]},{"type":"error","name":"UUPSUnsupportedProxiableUUID","inputs":[{"name":"slot","type":"bytes32","internalType":"bytes32"}]},{"type":"error","name":"VaultAlreadyAdded","inputs":[]},{"type":"error","name":"VaultHasAssets","inputs":[]},{"type":"error","name":"VaultNotAdded","inputs":[]},{"type":"error","name":"VaultNotKerosene","inputs":[]},{"type":"error","name":"VaultNotLicensed","inputs":[]}],"bytecode":{"object":"0x60a080604052346100ea57306080527ff0c57e16840df040f15088dc2f81fe391c3923bec73e23a9662efc9c229c6a005460ff8160401c166100d9576002600160401b03196001600160401b03821601610073575b6040516124e490816100f0823960805181818161100101526110d20152f35b6001600160401b0319166001600160401b039081177ff0c57e16840df040f15088dc2f81fe391c3923bec73e23a9662efc9c229c6a005581527fc7f505b2f371ae2175ee4913f4499e1f2633a7b5936321eed1cdaeb6115181d290602090a13880610054565b63f92ee8a960e01b60005260046000fd5b600080fdfe608080604052600436101561001357600080fd5b600090813560e01c908163065941f214611c23575080630f5eea9114611bfc5780631366169914611bd357806316ae57a314611ac357806320dc20881461150c5780632b8bbbe814611391578063468d16d0146112e15780634c3b7ee7146112be5780634f1ef2861461105657806352d1902d14610fee5780635f0f48bd14610edd578063628ab25a14610eb2578063715018a614610e485780638da5cb5b14610e125780639c110fe114610df35780639dfa4e9414610c825780639f0784ba14610803578063ad0d7594146107e0578063ad3cb1cc14610766578063add95a511461073d578063b6eaea1714610721578063bc157ac114610556578063c0c53b8b14610385578063ccf2e88614610202578063d41f283c146101d2578063dd7f27a4146101795763f2fde38b1461014a57600080fd5b3461017657602036600319011261017657610173610166611c60565b61016e61218e565b61205d565b80f35b80fd5b5034610176576040366003190112610176576101c8602091604061019b611c4a565b60043583526003855291206001600160a01b03909116600090815260019091016020526040902054151590565b6040519015158152f35b50346101765760203660031901126101765760206101fa6101f4600435611dd3565b90611d27565b604051908152f35b5034610176576060366003190112610176576044356001600160a01b0381169060043590602435908381036103815784546040516331a9108f60e11b81526004810185905290602090829060249082906001600160a01b03165afa908115610376578691610347575b50336001600160a01b0390911603610338576001548591906001600160a01b0316803b156103345760405163020da84160e61b8152600481018690526001600160a01b039290921660248301526044820184905282908290606490829084905af1801561032957610310575b505060207f7f657cc58c2af5fee5c8056bebe6de1f2e33938cd0d3f6324198849bf504d35a91610306846120d3565b604051908152a380f35b8161031a91611c76565b6103255783386102d7565b8380fd5b6040513d84823e3d90fd5b8280fd5b6330cd747160e01b8552600485fd5b610369915060203d60201161036f575b6103618183611c76565b810190611d08565b3861026b565b503d610357565b6040513d88823e3d90fd5b8480fd5b5034610176576060366003190112610176576004356001600160a01b03811690819003610552576024356001600160a01b03811690819003610334576044356001600160a01b03811691908290036103255760008051602061248f833981519152549260ff8460401c16159367ffffffffffffffff81168015908161054a575b6001149081610540575b159081610537575b506105285767ffffffffffffffff19811660011760008051602061248f83398151915255846104fb575b5061044a6123bf565b6104526123bf565b61045a6123bf565b6104633361205d565b6001600160601b0360a01b8554161784556001600160601b0360a01b60015416176001556001600160601b0360a01b60025416176002556104a15780f35b68ff00000000000000001960008051602061248f833981519152541660008051602061248f833981519152557fc7f505b2f371ae2175ee4913f4499e1f2633a7b5936321eed1cdaeb6115181d2602060405160018152a180f35b68ffffffffffffffffff1916680100000000000000011760008051602061248f8339815191525538610441565b63f92ee8a960e01b8652600486fd5b90501538610417565b303b15915061040f565b869150610405565b5080fd5b503461017657606036600319011261017657600435610573611c4a565b82546040516331a9108f60e11b8152600481018490526044359391602090829060249082906001600160a01b03165afa9081156107165785916106f7575b50336001600160a01b03909116036106e857808452600460208181526040808720439055516338d52e0f60e01b81526001600160a01b038516949092879290849081885afa908115610329578260649260209582916106cb575b50604051926323b872dd60e01b845233600485015260248401528860448401525af13d15601f3d1160018751141617161561068f578392823b1561068a5760448492836040519586948593631c57762b60e31b8552600485015260248401525af18015610329576106795750f35b8161068391611c76565b6101765780f35b505050fd5b60405162461bcd60e51b81526020600482015260146024820152731514905394d1915497d19493d357d1905253115160621b6044820152606490fd5b6106e29150863d881161036f576103618183611c76565b3861060b565b6330cd747160e01b8452600484fd5b610710915060203d60201161036f576103618183611c76565b386105b1565b6040513d87823e3d90fd5b5034610176578060031936011261017657602060405160068152f35b50346101765780600319360112610176576001546040516001600160a01b039091168152602090f35b503461017657806003193601126101765760408051916107868284611c76565b60058352640352e302e360dc1b6020840152815192839160208352815191826020850152815b8381106107c9575050828201840152601f01601f19168101030190f35b6020828201810151888301880152879550016107ac565b503461017657806003193601126101765760206040516702c68af0bb1400008152f35b50346101765761081236611cca565b9392909160018060a01b038454166040516331a9108f60e11b8152836004820152602081602481855afa908115610376578691610c63575b50336001600160a01b0390911603610338576020602491604051928380926331a9108f60e11b82528760048301525afa908115610716578591610c44575b50336001600160a01b03909116036106e8576001546001600160a01b0316803b1561038157604051634f752fb360e11b815260048101849052336024820152604481018590529085908290606490829084905af1801561071657908591610c2f575b5050604051838152827f0c3afe79693a0a8b287c7976e65c25875b65e90c75f5f3679c491cf27b7c1ab260203393a36040516307dc0d1d60e41b81526001600160a01b03919091169190602081600481865afa908115610716576004916020918791610c12575b5060405163313ce56760e01b815292839182906001600160a01b03165afa908115610716578591610bf3575b506040516338d52e0f60e01b8152602081600481875afa90811561037657600492916020918891610bd6575b5060405163313ce56760e01b815293849182906001600160a01b03165afa918215610376576109f2926109ec926109e7928992610ba5575b50611d63565b611d77565b84611d88565b60405163d24378eb60e01b8152602081600481875afa908115610376578691610b66575b50610a2a90670de0b6b3a764000092611d9b565b04936024602060018060a01b03835416604051928380926331a9108f60e11b82528760048301525afa908115610329578291610b47575b50336001600160a01b0390911603610b3857818152600460205260408120544314610b2957823b1561017657604051631cc6d2f960e31b8152600481018390526001600160a01b038716602482015260448101869052818160648183885af1801561032957610b14575b50507fca70a9c93e1c3bc9192e8a6c70bf383ab46895bade3f9498e048cb1cdac8a1d260208096610afb846120d3565b6040519586526001600160a01b031694a4604051908152f35b610b1f828092611c76565b6101765780610acb565b6306f5c2d560e31b8152600490fd5b6330cd747160e01b8152600490fd5b610b60915060203d60201161036f576103618183611c76565b38610a61565b90506020813d602011610b9d575b81610b8160209383611c76565b81010312610b985751670de0b6b3a7640000610a16565b600080fd5b3d9150610b74565b610bc891925060203d602011610bcf575b610bc08183611c76565b810190611d4a565b90386109e1565b503d610bb6565b610bed9150823d841161036f576103618183611c76565b386109a9565b610c0c915060203d602011610bcf57610bc08183611c76565b3861097d565b610c299150823d841161036f576103618183611c76565b38610951565b81610c3991611c76565b6103255783386108ea565b610c5d915060203d60201161036f576103618183611c76565b38610888565b610c7c915060203d60201161036f576103618183611c76565b3861084a565b503461017657604036600319011261017657600435610c9f611c4a565b82546040516331a9108f60e11b81526004810184905290602090829060249082906001600160a01b03165afa908115610dba578491610dd4575b50336001600160a01b0390911603610dc557604051633b495b5560e11b8152600481018390526001600160a01b03919091169190602081602481865afa908115610dba578491610d88575b50610d79578083526003602052610d3e82604085206122ec565b15610d6a577f0d141fd7c77072fc48765e24d85a4727dc79f72cbb320ad2ba944e2914a51e6d8380a380f35b63d3e232b360e01b8352600483fd5b6314e93e6d60e21b8352600483fd5b90506020813d602011610db2575b81610da360209383611c76565b81010312610b98575138610d24565b3d9150610d96565b6040513d86823e3d90fd5b6330cd747160e01b8352600483fd5b610ded915060203d60201161036f576103618183611c76565b38610cd9565b50346101765760203660031901126101765760206101fa600435611fd0565b503461017657806003193601126101765760008051602061244f833981519152546040516001600160a01b039091168152602090f35b5034610176578060031936011261017657610e6161218e565b60008051602061244f83398151915280546001600160a01b0319811690915581906001600160a01b03167f8be0079c531659141344cd1fd0a4f28419497f9722a3daafe3b4186f6b6457e08280a380f35b5034610176576020366003190112610176576040610ed1600435611dd3565b82519182526020820152f35b503461017657610eec36611cca565b90916024602060018060a01b03875416604051928380926331a9108f60e11b82528960048301525afa908115610376578691610fcf575b50336001600160a01b039091160361033857838552600460205260408520544314610fc05784926001600160a01b039091169190823b1561032557604051631cc6d2f960e31b8152600481018690526001600160a01b0392909216602483015260448201529082908290606490829084905af1801561032957610fab575b50610173826120d3565b81610fb591611c76565b610552578138610fa1565b6306f5c2d560e31b8552600485fd5b610fe8915060203d60201161036f576103618183611c76565b38610f23565b50346101765780600319360112610176577f00000000000000000000000000000000000000000000000000000000000000006001600160a01b0316300361104757602060405160008051602061246f8339815191528152f35b63703e46dd60e11b8152600490fd5b5060403660031901126101765761106b611c60565b6024359067ffffffffffffffff82116103345736602383011215610334578160040135908361109983611cae565b936110a76040519586611c76565b8385526020850193366024828401011161033457806024602093018637850101526001600160a01b037f00000000000000000000000000000000000000000000000000000000000000001630811490811561129b575b5061128c5760008051602061244f833981519152546001600160a01b031633036106e8576040516352d1902d60e01b81526001600160a01b0382169390602081600481885afa869181611254575b5061116457634c9c8ce360e01b86526004859052602486fd5b938460008051602061246f8339815191528796036112425750823b156112305760008051602061246f83398151915280546001600160a01b031916821790558491907fbc7cd75a20ee27fd9adebab32041f755214dbc6bffa90cc0225b39da2e5c2d3b8380a2805115611215576112099382915190845af43d1561120d573d916111ed83611cae565b926111fb6040519485611c76565b83523d85602085013e6123ed565b5080f35b6060916123ed565b50505050346112215780f35b63b398979f60e01b8152600490fd5b634c9c8ce360e01b8552600452602484fd5b632a87526960e21b8652600452602485fd5b9091506020813d602011611284575b8161127060209383611c76565b810103126112805751903861114b565b8680fd5b3d9150611263565b63703e46dd60e11b8452600484fd5b60008051602061246f833981519152546001600160a01b031614159050386110fd565b503461017657806003193601126101765760206040516714d1120d7b1600008152f35b5034610176576020366003190112610176576004358152600360205260408120604051908160208254918281520190819285526020852090855b81811061137b5750505082611331910383611c76565b604051928392602084019060208552518091526040840192915b818110611359575050500390f35b82516001600160a01b031684528594506020938401939092019160010161134b565b825484526020909301926001928301920161131b565b5034610176576040366003190112610176576004356113ae611c4a565b906024602060018060a01b03855416604051928380926331a9108f60e11b82528660048301525afa908115610dba5784916114ed575b50336001600160a01b0390911603610dc557600254604051632950b0a960e21b81526001600160a01b039384166004820181905293909160209183916024918391165afa908115610dba5784916114be575b50156114af5780835260036020526006604084205410156114a15780835260036020526114668260408520612279565b15611492577f8ba5cdc385bc6c37c9a05ad09fbc238589c43602f4cee09c46856027df8a935a8380a380f35b630cb3e97f60e31b8352600483fd5b62c9312160e41b8352600483fd5b6301418aa760e71b8352600483fd5b6114e0915060203d6020116114e6575b6114d88183611c76565b810190611dbb565b38611436565b503d6114ce565b611506915060203d60201161036f576103618183611c76565b386113e4565b5034610176576060366003190112610176576004356024359060443560018060a01b038454166040516331a9108f60e11b8152836004820152602081602481855afa908115610376578691611aa4575b506001600160a01b031615611a95576020602491604051928380926331a9108f60e11b82528860048301525afa908115610716578591611a76575b506001600160a01b031615611a67576714d1120d7b1600006115b883611fd0565b1015611a59576001546040516302d14bb360e31b815260048101849052919085906001600160a01b0316602084602481845afa938415610329578294611a22575b50803b1561055257604051634f752fb360e11b815260048101869052336024820152604481018490529082908290606490829084905af1801561032957611a0d575b5084905260046020524360408620556116606116596101f485611dd3565b928261220f565b785c3bd5191b525a2484df7f5cfd6a43e17fc6f80abedcc69ba781116702c68af0bb1400000215670de0b6b3a76400000215611a09576702c68af0bb140000670de0b6b3a7640000910204838652600360205260408620549186918160001904928160001904905b8581106116fa578989338a7ff2bcfabb628d3e0f92291f1e0bc5f2322f8ac3af9e187670152968100e6b60a68480a480f35b878a52600360205289611710826040832061224b565b905460405163039bc4f160e11b8152600481018c905260039290921b1c6001600160a01b031690602081602481855afa9081156119fe5783916119c6575b506117598a8261220f565b888111880215670de0b6b3a764000002156103255787670de0b6b3a7640000910204858111870215670de0b6b3a764000002156103255780670de0b6b3a7640000886117a793020490611d27565b818111156119bf57505b6040516307dc0d1d60e41b815290602082600481865afa918215610dba5760049260209186916119a2575b5060405163313ce56760e01b815293849182906001600160a01b03165afa918215610dba578492611982575b506040516338d52e0f60e01b815291602083600481875afa928315610716576004936020918791611965575b5060405163313ce56760e01b815294859182906001600160a01b03165afa9283156107165761187793611871926109e792889261194c5750611d63565b90611d88565b60405163d24378eb60e01b815290602082600481865afa918215610dba578492611911575b50670de0b6b3a7640000916118b091611d9b565b0490803b15610334578b60648c858094604051968795869463fa7c9bcf60e01b86526004860152602485015260448401525af18015610329576118f8575b50506001016116c8565b8161190291611c76565b61190d5789386118ee565b8980fd5b915091925060203d8111611945575b61192a8183611c76565b602082600092810103126101765750518c92916118b061189c565b503d611920565b610bc891925060203d8111610bcf57610bc08183611c76565b61197c9150823d811161036f576103618183611c76565b38611834565b61199b91925060203d8111610bcf57610bc08183611c76565b9038611808565b6119b99150823d811161036f576103618183611c76565b386117dc565b90506117b1565b9192505060203d81116119f7575b6119de8183611c76565b602082600092810103126101765750908b91513861174e565b503d6119d4565b6040513d85823e3d90fd5b8580fd5b81611a1791611c76565b61038157843861163b565b915092506020813d602011611a51575b81611a3f60209383611c76565b81010312610b985785905192386115f9565b3d9150611a32565b62bcccdd60e31b8452600484fd5b634ab600f960e11b8452600484fd5b611a8f915060203d60201161036f576103618183611c76565b38611597565b634ab600f960e11b8552600485fd5b611abd915060203d60201161036f576103618183611c76565b3861155c565b503461017657604036600319011261017657600435602435906024602060018060a01b03855416604051928380926331a9108f60e11b82528660048301525afa908115610dba578491611bb4575b50336001600160a01b0390911603610dc5576001546001600160a01b0316803b1561032557604051634f752fb360e11b815260048101839052336024820152604481018490529084908290606490829084905af18015610dba57611ba0575b506040519182527f0c3afe79693a0a8b287c7976e65c25875b65e90c75f5f3679c491cf27b7c1ab260203393a380f35b83611bad91949294611c76565b9138611b70565b611bcd915060203d60201161036f576103618183611c76565b38611b11565b50346101765780600319360112610176576002546040516001600160a01b039091168152602090f35b5034610176578060031936011261017657546040516001600160a01b039091168152602090f35b90503461055257602036600319011261055257604060209260043581526004845220548152f35b602435906001600160a01b0382168203610b9857565b600435906001600160a01b0382168203610b9857565b90601f8019910116810190811067ffffffffffffffff821117611c9857604052565b634e487b7160e01b600052604160045260246000fd5b67ffffffffffffffff8111611c9857601f01601f191660200190565b6080906003190112610b9857600435906024356001600160a01b0381168103610b985790604435906064356001600160a01b0381168103610b985790565b90816020910312610b9857516001600160a01b0381168103610b985790565b91908201809211611d3457565b634e487b7160e01b600052601160045260246000fd5b90816020910312610b98575160ff81168103610b985790565b9060ff8091169116019060ff8211611d3457565b60ff16604d8111611d3457600a0a90565b81810292918115918404141715611d3457565b8115611da5570490565b634e487b7160e01b600052601260045260246000fd5b90816020910312610b9857518015158103610b985790565b6000818152600360205260408120546002549193849390926001600160a01b031690845b838110611e045750505050565b816000526003602052611e1b81604060002061224b565b9054604051632950b0a960e21b815260039290921b1c6001600160a01b03166004820181905290602081602481885afa908115611f1257600091611fb2575b50611e69575b50600101611df7565b6040516369cbf52d60e11b815260048101829052919691602081602481885afa908115611f1257600091611f94575b5015611f1e5760206024916040519283809263039bc4f160e11b82528760048301525afa908115611f1257600091611ee0575b50611ed890600192611d27565b955b90611e60565b906020823d8211611f0a575b81611ef960209383611c76565b810103126101765750516001611ecb565b3d9150611eec565b6040513d6000823e3d90fd5b6020602491604099939899519283809263039bc4f160e11b82528760048301525afa908115611f1257600091611f62575b50611f5c90600192611d27565b96611eda565b906020823d8211611f8c575b81611f7b60209383611c76565b810103126101765750516001611f4f565b3d9150611f6e565b611fac915060203d81116114e6576114d88183611c76565b38611e98565b611fca915060203d81116114e6576114d88183611c76565b38611e5a565b6001546040516302d14bb360e31b8152600481018390529190602090839060249082906001600160a01b03165afa918215611f1257600092612027575b509061201e6101f461202493611dd3565b906121c4565b90565b91506020823d602011612055575b8161204260209383611c76565b81010312610b985790519061201e61200d565b3d9150612035565b6001600160a01b031680156120bd5760008051602061244f83398151915280546001600160a01b0319811683179091556001600160a01b03167f8be0079c531659141344cd1fd0a4f28419497f9722a3daafe3b4186f6b6457e0600080a3565b631e4fbdf760e01b600052600060045260246000fd5b6120dc81611dd3565b9091602060018060a01b0360015416916024604051809481936302d14bb360e31b835260048301525afa908115611f125760009161215c575b5080831061214b5761201e612133926714d1120d7b16000094611d27565b1061213a57565b63206d2abd60e11b60005260046000fd5b633269bd2960e21b60005260046000fd5b906020823d602011612186575b8161217660209383611c76565b8101031261017657505138612115565b3d9150612169565b60008051602061244f833981519152546001600160a01b031633036121af57565b63118cdaa760e01b6000523360045260246000fd5b908115612207577812725dd1d243aba0e75fe645cc4873f9e65afe688c928e1f218111670de0b6b3a76400000215820215610b9857670de0b6b3a7640000020490565b505060001990565b7812725dd1d243aba0e75fe645cc4873f9e65afe688c928e1f218111670de0b6b3a76400000215820215610b9857670de0b6b3a7640000020490565b80548210156122635760005260206000200190600090565b634e487b7160e01b600052603260045260246000fd5b60008281526001820160205260409020546122e55780549068010000000000000000821015611c9857826122ce6122b784600180960185558461224b565b819391549060031b91821b91600019901b19161790565b905580549260005201602052604060002055600190565b5050600090565b90600182019181600052826020526040600020548015156000146123b6576000198101818111611d34578254600019810191908211611d345781810361237f575b50505080548015612369576000190190612347828261224b565b8154906000199060031b1b191690555560005260205260006040812055600190565b634e487b7160e01b600052603160045260246000fd5b61239f61238f6122b7938661224b565b90549060031b1c9283928661224b565b90556000528360205260406000205538808061232d565b50505050600090565b60ff60008051602061248f8339815191525460401c16156123dc57565b631afcd79f60e31b60005260046000fd5b90612413575080511561240257805190602001fd5b630a12f52160e11b60005260046000fd5b81511580612445575b612424575090565b639996b31560e01b60009081526001600160a01b0391909116600452602490fd5b50803b1561241c56fe9016d09d72d40fdae2fd8ceac6b6234c7706214fd39c1cd1e609a0528c199300360894a13ba1a3210667c828492db98dca3e2076cc3735a920a3ca505d382bbcf0c57e16840df040f15088dc2f81fe391c3923bec73e23a9662efc9c229c6a00a2646970667358221220bb6a009bc3e33aab4384ceee82e96b3ec4cdd91f87561f6ff0c8b6a0ca4e476d64736f6c634300081a0033","linkReferences":{}},"methodIdentifiers":{"LIQUIDATION_REWARD()":"ad0d7594","MAX_VAULTS()":"b6eaea17","MIN_COLLAT_RATIO()":"4c3b7ee7","UPGRADE_INTERFACE_VERSION()":"ad3cb1cc","add(uint256,address)":"2b8bbbe8","burnDyad(uint256,uint256)":"16ae57a3","collatRatio(uint256)":"9c110fe1","dNft()":"0f5eea91","deposit(uint256,address,uint256)":"bc157ac1","dyad()":"add95a51","getTotalValue(uint256)":"d41f283c","getVaults(uint256)":"468d16d0","getVaultsValues(uint256)":"628ab25a","hasVault(uint256,address)":"dd7f27a4","initialize(address,address,address)":"c0c53b8b","lastDeposit(uint256)":"065941f2","liquidate(uint256,uint256,uint256)":"20dc2088","mintDyad(uint256,uint256,address)":"ccf2e886","owner()":"8da5cb5b","proxiableUUID()":"52d1902d","redeemDyad(uint256,address,uint256,address)":"9f0784ba","remove(uint256,address)":"9dfa4e94","renounceOwnership()":"715018a6","transferOwnership(address)":"f2fde38b","upgradeToAndCall(address,bytes)":"4f1ef286","vaultLicenser()":"13661699","withdraw(uint256,address,uint256,address)":"5f0f48bd"},"storageLayout":{"storage":[{"astId":59901,"contract":"src/core/VaultManagerV2.sol:VaultManagerV2","label":"dNft","offset":0,"slot":"0","type":"t_contract(DNft)57965"},{"astId":59904,"contract":"src/core/VaultManagerV2.sol:VaultManagerV2","label":"dyad","offset":0,"slot":"1","type":"t_contract(Dyad)58061"},{"astId":59907,"contract":"src/core/VaultManagerV2.sol:VaultManagerV2","label":"vaultLicenser","offset":0,"slot":"2","type":"t_contract(VaultLicenser)59160"},{"astId":59912,"contract":"src/core/VaultManagerV2.sol:VaultManagerV2","label":"vaults","offset":0,"slot":"3","type":"t_mapping(t_uint256,t_struct(AddressSet)50424_storage)"},{"astId":59916,"contract":"src/core/VaultManagerV2.sol:VaultManagerV2","label":"lastDeposit","offset":0,"slot":"4","type":"t_mapping(t_uint256,t_uint256)"}],"types":{"t_array(t_bytes32)dyn_storage":{"encoding":"dynamic_array","label":"bytes32[]","numberOfBytes":"32","base":"t_bytes32"},"t_bytes32":{"encoding":"inplace","label":"bytes32","numberOfBytes":"32"},"t_contract(DNft)57965":{"encoding":"inplace","label":"contract DNft","numberOfBytes":"20"},"t_contract(Dyad)58061":{"encoding":"inplace","label":"contract Dyad","numberOfBytes":"20"},"t_contract(VaultLicenser)59160":{"encoding":"inplace","label":"contract VaultLicenser","numberOfBytes":"20"},"t_mapping(t_bytes32,t_uint256)":{"encoding":"mapping","key":"t_bytes32","label":"mapping(bytes32 => uint256)","numberOfBytes":"32","value":"t_uint256"},"t_mapping(t_uint256,t_struct(AddressSet)50424_storage)":{"encoding":"mapping","key":"t_uint256","label":"mapping(uint256 => struct EnumerableSet.AddressSet)","numberOfBytes":"32","value":"t_struct(AddressSet)50424_storage"},"t_mapping(t_uint256,t_uint256)":{"encoding":"mapping","key":"t_uint256","label":"mapping(uint256 => uint256)","numberOfBytes":"32","value":"t_uint256"},"t_struct(AddressSet)50424_storage":{"encoding":"inplace","label":"struct EnumerableSet.AddressSet","numberOfBytes":"64","members":[{"astId":50423,"contract":"src/core/VaultManagerV2.sol:VaultManagerV2","label":"_inner","offset":0,"slot":"0","type":"t_struct(Set)50109_storage"}]},"t_struct(Set)50109_storage":{"encoding":"inplace","label":"struct EnumerableSet.Set","numberOfBytes":"64","members":[{"astId":50104,"contract":"src/core/VaultManagerV2.sol:VaultManagerV2","label":"_values","offset":0,"slot":"0","type":"t_array(t_bytes32)dyn_storage"},{"astId":50108,"contract":"src/core/VaultManagerV2.sol:VaultManagerV2","label":"_positions","offset":0,"slot":"1","type":"t_mapping(t_bytes32,t_uint256)"}]},"t_uint256":{"encoding":"inplace","label":"uint256","numberOfBytes":"32"}}},"id":77}